:020000040800F2
:10000000F807002059010008110B0008870A0008B2
:1000100000000000000000000000000000000000E0
:10002000000000000000000000000000FB100008BD
:100030000000000000000000AD0D0008BD11000828
:1000400089010008000000008901000889010008FA
:10005000890100088901000889010008E5070008F6
:1000600000000000890100088901000889010008DA
:1000700055060008890100088901000800000000F9
:10008000890100080000000000000000890100084C
:100090008901000889010008890100088901000818
:1000A0008901000889010008890100088901000808
:1000B0008901000800F002F800F03EF80CA030C8FA
:1000C000083824182D18A246671EAB4654465D46D4
:1000D000AC4201D100F030F87E460F3E0FCCB64660
:1000E0000126334200D0FB1AA246AB4633431847E1
:1000F00084150000A4150000103A02D378C878C116
:10010000FAD8520701D330C830C101D504680C6059
:10011000704700000023002400250026103A01D378
:1001200078C1FBD8520700D330C100D50B607047AF
:100130001FB51FBD10B510BD00F02AFA1146FFF71C
:10014000F7FF01F041F900F042FA03B4FFF7F2FFC4
:1001500003BC00F077FA00000F4880F308880F48CE
:100160000168090E0E4A914205D10E480E49016000
:100170000E480F4901600F4880470F480047FEE7CF
:10018000FEE7FEE7FEE7FEE7FEE700000B480C494E
:100190000C4A0D4B70470000F807002004000000D7
:1001A0001F00000018100240010000000000014084
:1001B00000000000E9110008B5000008F801002067
:1001C000F8070020F8030020F803002000220309AC
:1001D0008B422CD3030A8B4211D300239C464EE062
:1001E00003460B433CD4002243088B4231D303091E
:1001F0008B421CD3030A8B4201D394463FE0C309D0
:100200008B4201D3CB01C01A524183098B4201D3E7
:100210008B01C01A524143098B4201D34B01C01AD2
:10022000524103098B4201D30B01C01A5241C3084A
:100230008B4201D3CB00C01A524183088B4201D3B9
:100240008B00C01A524143088B4201D34B00C01AA5
:100250005241411A00D201465241104670475DE0BA
:10026000CA0F00D04942031000D34042534000223D
:100270009C4603098B422DD3030A8B4212D3FC22E6
:10028000890112BA030A8B420CD3890192118B4265
:1002900008D3890192118B4204D389013AD092117B
:1002A00000E08909C3098B4201D3CB01C01A524136
:1002B00083098B4201D38B01C01A524143098B42FF
:1002C00001D34B01C01A524103098B4201D30B01E8
:1002D000C01A5241C3088B4201D3CB00C01A52410D
:1002E00083088B4201D38B00C01A5241D9D24308F4
:1002F0008B4201D34B00C01A5241411A00D2014631
:10030000634652415B10104601D34042002B00D59A
:100310004942704763465B1000D3404201B500205C
:10032000C046C04602BD704770477047F0B5FF2514
:100330002D04C609C209FF2704462E400137CB0908
:100340003E4348402A402B400746002A6BD0002BF2
:1003500069D0AA4267D0AB4265D0002800DA3246A5
:100360000125ED0529432C4309022002090AD21A6E
:100370004B0C7F24E31A434C000A7C44E35C7D244D
:100380002404121914145B00A218884201D3521CD1
:1003900000E0400049420C465C4324115C43DB0111
:1003A0006415E318040A5C43C502200D0C4644435F
:1003B0006419250A5D432303EC0C0D4665430003D5
:1003C0000019EB184C42A34201D35B18401CD40522
:1003D0002018002B07D05B00C91804D3401C00294B
:1003E00001D1400840003F2189048A4209D3002AF4
:1003F00008DC1106090F04D0032149074018C00F7B
:10040000C007F0BD01224100120689187F22520662
:100410009142F6D205214907C84201D59010F0BD9E
:10042000FF20C005F0BD002F00DA32461648AA4270
:1004300007D2AB4205D21902090E17D0F80FC00738
:10044000F0BDFF2563002D06AB42F9D84900A94253
:10045000F6D8AB4201D1A942F2D0A94201D1002184
:1004600001E061004908D0050843F0BD1102090E02
:10047000FBD0FF200243D005F0BD0A4601461046DE
:1004800054E70000B51200000000C07F1F22030CDB
:1004900002D10F2200041CD0030E01D10002083A41
:1004A000030F01D10001121F830F01D18000921EA2
:1004B000002801DB4000521ED205511802125118CB
:1004C0001922904004D3491C002801D14908490051
:1004D00008467047C10FC90700D040420122920769
:1004E0001143D3E701218907D0E7000010B5FF23AE
:1004F0001B0644009C421DD84C009C421AD803465F
:10050000124A0B4307D4401A02D3EFF3008010BD08
:10051000EFF3008010BD081A06D2EFF3008001212E
:100520009043C907084302E0EFF30080904380F353
:10053000008810BD0D231B041A4204D01146002070
:1005400000F006F810BD00F01BF810BD0000009090
:10055000C80212D54803400F002804D0C803C04386
:10056000012188407047EFF300800001000903215A
:100570000907084380F30088704700207047000097
:1005800010B5024800F02BF810BD00000000C07F3D
:10059000754600F053F8AE46050069465346C0085C
:1005A000C000854618B020B5FFF7F0FD60BC0027FD
:1005B0004908B6460026C0C5C0C5C0C5C0C5C0C52F
:1005C000C0C5C0C5C0C5403D49008D46704710B587
:1005D0000446C046C0462046FFF7B7FD10BD10B523
:1005E0000C461107090F092904D00A290AD0082945
:1005F0000CD104E011460820FFF7AAFF06E05106DF
:1006000006D501E0510601D50120C007214610BDE5
:10061000D10607D501010909CC084907000E0006DB
:10062000044309E0410F20024907000A0143200E5C
:1006300000061D22D14101430846E7E70048704704
:100640009401002001491820ABBEFEE726000200FD
:100650007047000010B50421144800F06DF801281F
:1006600019D10421114800F035F8104800F060F865
:100670000F490A780978491C0D4B197051000D4A31
:10068000505218460078962805D101200A49087072
:100690000020194608700821044800F04DF8012890
:1006A00003D10821014800F015F810BD00240140D5
:1006B00000000020280000200800002010B50B4694
:1006C0000021846A1C43846200BF0C461443214607
:1006D000416110BD0160704701617047002904D07D
:1006E000826801231A43826003E0826802231A436E
:1006F0008260704730B501460020002200238C68DC
:100700000125ED072C438C6000BF8C68E30FDB07ED
:10071000521C0F242403A24201D0002BF5D18C6877
:10072000E40FE407002C01D1086C00E0002030BD8C
:100730000146086C80B2704730B5024600200023A5
:10074000012424060C40002C05D0946801252D06B8
:10075000AC43234600E013681C460C40002C01D03B
:10076000012000E0002030BD002A03D043680B4385
:10077000436002E043688B434360704710B500223A
:10078000C268084B1A400C7964030B6823438C68D9
:100790002343CC6823430C6923434C6923431A4306
:1007A000C26010BD03D2FFFF816804221143816043
:1007B000704781681022114381607047002807D07C
:1007C00007498968012292051143054A916006E0B4
:1007D00003498968012292059143014A916070475B
:1007E0000027014010B5002408210C4800F00EF944
:1007F00044B20120800200F04DF800280DD0012005
:10080000800200F00DF8002C01D1012000E0002052
:1008100002460821014800F007F910BD0004004815
:1008200001494861704700000004014000B585B0EF
:100830000121480400F07CFB01208002019000218E
:10084000684601720121C17201A90920C00600F0A9
:1008500073F80121084600F08BFB0A21002000F00C
:100860004DFC0120800203900C2168464174002158
:1008700001740121817403A800F01AF80721684669
:100880000170002141700121817000F01BFA05B058
:1008900000BD000001460020044A52690A40002AB7
:1008A00001D0012000E0002070470000000401405A
:1008B000002120498279002A35D00A46126803684F
:1008C0009A430B461A600A46526803689A430B46DD
:1008D0005A60027951180A6803681A430A60154A77
:1008E000926803689A43134B9A601A46D268036869
:1008F0009A43104BDA604279102A0CD11A4692685A
:1009000003681A430B4B9A601A46D26803681A436D
:10091000084BDA600DE00749427951180A6803680C
:100920001A430A6005E0027951180A6803689A437D
:100930000A60704700040140F0B50A460021002318
:10094000002400BF3DE001258D402B4615681D4069
:100950002C469C4234D11579012D02D01579022DF7
:1009600016D185684F000326BE40B5438560557992
:100970004E00B540866835438560858801268E40E7
:10098000B5438580858896798E40B6B2354385809B
:1009900005684F000326BE40B543056015794E003B
:1009A000B540066835430560C5684F000326BE4064
:1009B000B543C560D5794E00B540C6683543C560BE
:1009C000491C1029BFD3F0BDF0B5002300244D070A
:1009D000EE0E1546B5402B46CD10AE00054620352F
:1009E000AD594E07F70E0F26BE40B543CE10B600E8
:1009F00007462037BD51CD10AE003D46AD591D43D1
:100A00002C46CD10AD003E467451F0BD024600208C
:100A1000938A0B40002B01D0012000E0002070479A
:100A20000185704781617047002A01D0816100E033
:100A3000018570471CB50121480400F079FA0121B5
:100A40006846017100218171042000906846C171DF
:100A50000121417169460920C006FFF76DFF0120A1
:100A6000C002009069460920C006FFF765FF042117
:100A70000920C006FFF7D6FF0121C9020920C006E0
:100A8000FFF7D0FF1CBD00BFFEE7002904D00268BD
:100A900001231A43026003E0026852085200026018
:100AA0007047000010B50A46002103685B085B0030
:100AB00003600168144B194094682402536823436F
:100AC000194301600F2424061368A34303610368DC
:100AD00001242343036000218160C160146993698C
:100AE00023431946816083680124E4032343836020
:100AF000D16803680B4303604168044B1940536994
:100B00001943416010BD0000FFE0CF00FF7FFF07E9
:100B100070471CB51020009001216846017100212A
:100B2000817141710121C17169460920C006FFF739
:100B300003FF00F02DFA00F059F8FF2101310920E0
:100B4000C006FFF76DFF10210920C006FFF76AFFFE
:100B50001CBD000010B5FF2001301449088105229A
:100B600013492A2000F06CF80021212000F08CF8B5
:100B70000121222000F088F80221252000F084F8CD
:100B80002021312000F080F80621262000F07CF89A
:100B90000F21202000F078F8FF2001300921C9063C
:100BA0008861962000F05EFB10BD00002000004828
:100BB0002E16000870B5044610200B49088101204C
:100BC00000F050FB204600F023FA00F081FC0546BF
:100BD000012000F047FB10200921C906886101208F
:100BE00000F040FB284670BD2000004800B585B0ED
:100BF0000121080300F0BCF9202168468181090128
:100C0000418100210181C180072101820902818087
:100C100000210180C181FF210531418069460748DB
:100C200000F02AFA01210903044800F057FA0121D3
:100C3000024800F009FA05B000BD00000030014094
:100C4000F8B507460C461546FF2001300D490881CE
:100C500010200881384600F0DBF90090002605E0FE
:100C60002078641C00F0D4F9701CC6B2AE42F7DBE9
:100C700010200921C9068861012000F0F3FA0098CC
:100C8000F8BD00002000004870B505460C46102055
:100C90000B490881012000F0E5FA284600F0B8F978
:100CA0000646204600F0B4F9012000F0DBFA1020DF
:100CB0000921C9068861012000F0D4FA304670BDD0
:100CC0002000004800218278002A27D0184A0323F8
:100CD0001B02D21803789B109B00D1580278920710
:100CE000D30EFF229A400B4693431946427892074F
:100CF000120E03789B07DB0E9A4011430C4A032324
:100D00001B02D21803789B109B00D1500278D306A7
:100D1000DB0E01229A40064B1A6007E00278D306E8
:100D2000DB0E01229A40024B80331A6070470000AC
:100D300000E100E010B5002819DA1A4A03071B0F7A
:100D4000083B9B089B00D2588307DC0EFF23A3407F
:100D50009A438B071B0E8407E40EA3401A43114BE2
:100D60000407240F083CA408A4001A5118E00E4AF6
:100D700003231B02D21883089B00D2588307DC0E82
:100D8000FF23A3409A438B071B0E8407E40EA34066
:100D90001A43054B032424021B198408A4001A518A
:100DA00010BD00001CED00E000E100E07047000015
:100DB000FEB5002400250026002002904E49087050
:100DC0004E48FFF7F1FC00BF4D4800780028FBD0EB
:100DD00000204B4908704B49087016E049480078DC
:100DE00040004949085A041946480078401C400010
:100DF000085A451943480078801C4000085A861953
:100E000040480078C01C3F4908703E48007896284A
:100E1000E4DB32212046FFF7D9F904463221284687
:100E2000FFF7D4F9054632213046FFF7CFF90646E1
:100E30003046FFF757FB35490190488BFFF752FBCF
:100E400000900199FFF772FA0746314900F066FBFE
:100E5000304908602046FFF745FB8B21C90500900B
:100E6000FFF764FA0746012189072A48006800F065
:100E700055FB3946019000F051FB27490860284690
:100E8000FFF730FB8B21C9050090FFF74FFA0746AB
:100E9000012189071F48006800F040FB3946019096
:100EA00000F03CFB1D4908601448FFF782FC1C4918
:100EB0001948006800F08AFB04D220211948FFF786
:100EC000B1FD03E020211748FFF7AAFD164912489B
:100ED000006800F07BFB04D210211248FFF7A2FD4E
:100EE00003E010210F48FFF79BFD10490A480068F6
:100EF00000F06CFBFEBD000000000020002401405B
:100F0000080000200A00002028000020A0F7FF1F92
:100F10003333534020000020180000201C00002024
:100F20000000604000040048333373403333834093
:100F3000002905D0054A52690243044B5A6104E076
:100F4000024A52698243014B5A61704700100240C5
:100F5000002905D0054AD2690243044BDA6104E056
:100F6000024AD2698243014BDA61704700100240A5
:100F7000002905D0054A92690243044B9A6104E0B6
:100F8000024A92698243014B9A6170470010024005
:100F90001CB501214804FFF7CBFF002205210920E1
:100FA000C006FFF711FD002206210920C006FFF749
:100FB0000BFD002207210920C006FFF705FDA02038
:100FC000009000216846817102210171C1710021E8
:100FD000417169460920C006FFF7AEFC0221684650
:100FE00001714020009001216846C17169460920C5
:100FF000C006FFF7A1FCFF200130009001216846E8
:10100000017169460920C006FFF796FC1CBD00006F
:1010100070B50446002500BF02210A4800F022F8FE
:101020000028F9D02146074800F062F800BF0121EE
:10103000044800F017F80028F9D002488089C5B2AA
:10104000284670BD00300140002904D002884023AA
:101050001A43028003E00288014B1A400280704765
:10106000BFFF00000246002013890B40002B01D077
:10107000012000E00020704710B500220288C12343
:101080009B011A400B88CC892343CC8823430C89CD
:1010900023434C8923438C8923431A43028082884B
:1010A000084B1A408B881A4382800B8A038202887D
:1010B000054B1A404B881A430280838B034C234014
:1010C000838310BDFFF00000FBFF0000FFF700006E
:1010D000014600220A460C32107870478288034B82
:1010E0001A40828082880A4382807047FFEF0000A6
:1010F000002202460C3211707047704730B5002252
:101100008B071C0F0F23A3401A460B4B8C10A40017
:101110001B599343084C8D10AD00635123468C102E
:10112000A4001B598C07250F0446AC402343024CF6
:101130008D10AD00635130BD0800014011201D49E4
:1011400008601D4840681C4948600846406848607F
:10115000084640687F21C90388431749486008460C
:1011600040680521C90408431349486008460068DF
:101170000121090608431049086000BF0E480068B5
:101180000121490608400028F8D00B484068800833
:101190008000094948600846406802210843064922
:1011A000486000BF044840680C2108400828F9D175
:1011B00070470000002002400010024008480088EC
:1011C0007D21C900884205DB0020054908800120F7
:1011D0000449088002480088401C01490880704783
:1011E000240000202600002010B51B4800680121C3
:1011F00008431949086008464068184908401649DC
:1012000048600846006816490840134908600846C7
:1012100000680121890488430F4908600846406836
:101220003F21090488430C4948600846C06A000908
:101230000001C8620846006BFF215431884306490B
:1012400008630846406B40084000486300208860FF
:10125000FFF774FF10BD0000001002400CB8FFF84B
:10126000FFFFF6FE0146642007E000BF00BF00BF9D
:1012700000BF00BF00BF00BF00BF0246431E98B2C0
:10128000002AF2D17047000000B589B0012148045E
:10129000FFF74EFE03200790032108A8017007A95D
:1012A0000920C006FFF748FB01214802FFF760FE56
:1012B00000200190059001216846017200200490F1
:1012C0000390069001A92048FFF758FA01218907E9
:1012D0001D48FFF701FA072201211B48FFF7EEF92D
:1012E000072202211848FFF7E9F9072201214904E2
:1012F0001548FFF7E3F90120FFF760FA1248FFF7FE
:10130000F9F91249087001210F48FFF7E7F90C219C
:10131000684601700121817004214170FFF7D2FC01
:10132000012204210848FFF71FFA0122082106487C
:10133000FFF71AFA00BF01210348FFF7FDF9002863
:10134000F9D009B000BD00000024014014000020C5
:1013500000B589B001214805FFF7FAFD0121880495
:10136000FFF7E6FDC0200790022108A801700021C8
:101370004170012181700021C17007A90F48FFF75A
:10138000DBFA012206210D48FFF71EFB012207218F
:101390000A48FFF719FB0A480090002003900490C8
:1013A000059006900190029069460648FFF77AFB87
:1013B00001210448FFF769FB09B000BD00040048A3
:1013C000A0860100005400401CB500BF0121880424
:1013D000FFF7AEFD3820009001216846017103211E
:1013E000417100218171C17169463248FFF7A4FA49
:1013F000314C601E3149884200D90CE0601E3049F2
:1014000048610321081FFFF795FC00202C498861E3
:101410000720086100BFFFF70DFBFFF735FFFFF75F
:1014200097FFFFF776FBFFF795FBFFF7FFF92548DE
:10143000006880218843244909780906C90FC90139
:101440008022114008431F49086008460068402177
:1014500088431D49097A0906C90F890140221140B4
:101460000843184908600846006820218843164947
:10147000097C0906C90F490120221140084311497E
:10148000086008460068102188430F49097E090654
:10149000C90F09011022114008430A4908600020C1
:1014A000FFF788FB0949087002E0FFF781FC30BFB5
:1014B000FBE70000000400480D74DA00FFFFFF00A6
:1014C00000E000E010000020540100200F00002088
:1014D00010B5002400BF02210F48FFF7C3FD00280C
:1014E000F9D000210C48FFF703FE00BF01210A4894
:1014F000FFF7B8FD0028F9D000BF80210648FFF7AC
:10150000B1FD0028F9D10448FFF7E2FD02488089C7
:101510000412204610BD00000030014070B54200AA
:1015200064414B005C41120E39D01B0E38D0FF2AAB
:101530003CD0FF2B3AD040024902400A490A06003B
:1015400045184E43000A090AD2184843ED017F3A74
:101550000104731A4019190C4318990F04D0012182
:101560005B0849075B1A521CD80904D3401CF503D9
:1015700001D19D0607D0FF2A08D2D50506D0E40781
:101580002043401970BD0125A843F4E7002A01DC7F
:10159000E00770BD2402FF202043C00570BD1B0E74
:1015A000FF2A03D0FF2B01D0E00770BDFF264500C6
:1015B0003606B54206D84D00B54203D8D218FF2AE8
:1015C00000D0E7E7004870BD0000C07F01230A009B
:1015D000DB0502430DD4DA4203D49A4207D4814298
:1015E0007047D94214D4D84212D4814270478942FC
:1015F0007047DA4203D59A42F9D5884270475B00BA
:101600004A00DA4204D24200DA4201D288427047EC
:101610004840414010B5024A4840FEF767FF10BD00
:1016200009001604E7E7E7E7E76666666666E7E748
:10163000E7E7E78182838485868788898B8C8D8E16
:101640008F919293959697999A9C9D9FA0A2A3A5FE
:10165000A7A8AAACAEB0B2B3B5B7B9BCBEC0C2C53C
:10166000C7C9CCCED1D4D7D9DCDFE2E6E9ECF0F3C0
:10167000F7FAFE0094160008000000202800000081
:10168000F8000008BC16000828000020D007000061
:10169000140100080000000000000000000000002D
:1016A000000000000000000000000000000000003A
:0C16B000000000006666564000000000CC
:04000005080000B53A
:00000001FF
